{
  "contractName": "CollectibleUpgrade",
  "abi": [
    {
      "constant": true,
      "inputs": [
        {
          "name": "",
          "type": "uint256"
        }
      ],
      "name": "collectibles",
      "outputs": [
        {
          "name": "itemType",
          "type": "uint256"
        },
        {
          "name": "itemRareness",
          "type": "uint256"
        },
        {
          "name": "itemAttribute",
          "type": "uint256"
        },
        {
          "name": "itemLevel",
          "type": "uint256"
        },
        {
          "name": "specialisationCount",
          "type": "uint256"
        }
      ],
      "payable": false,
      "stateMutability": "view",
      "type": "function"
    },
    {
      "constant": true,
      "inputs": [
        {
          "name": "",
          "type": "uint256"
        }
      ],
      "name": "collectibleToOwner",
      "outputs": [
        {
          "name": "",
          "type": "address"
        }
      ],
      "payable": false,
      "stateMutability": "view",
      "type": "function"
    },
    {
      "constant": false,
      "inputs": [],
      "name": "renounceOwnership",
      "outputs": [],
      "payable": false,
      "stateMutability": "nonpayable",
      "type": "function"
    },
    {
      "constant": true,
      "inputs": [],
      "name": "owner",
      "outputs": [
        {
          "name": "",
          "type": "address"
        }
      ],
      "payable": false,
      "stateMutability": "view",
      "type": "function"
    },
    {
      "constant": true,
      "inputs": [
        {
          "name": "_owner",
          "type": "address"
        }
      ],
      "name": "getCollectiblesId",
      "outputs": [
        {
          "name": "",
          "type": "uint256[]"
        }
      ],
      "payable": false,
      "stateMutability": "view",
      "type": "function"
    },
    {
      "constant": true,
      "inputs": [],
      "name": "isOwner",
      "outputs": [
        {
          "name": "",
          "type": "bool"
        }
      ],
      "payable": false,
      "stateMutability": "view",
      "type": "function"
    },
    {
      "constant": false,
      "inputs": [
        {
          "name": "_numberOfCollectibles",
          "type": "uint256"
        }
      ],
      "name": "obtainCollectible",
      "outputs": [],
      "payable": false,
      "stateMutability": "nonpayable",
      "type": "function"
    },
    {
      "constant": false,
      "inputs": [
        {
          "name": "newOwner",
          "type": "address"
        }
      ],
      "name": "transferOwnership",
      "outputs": [],
      "payable": false,
      "stateMutability": "nonpayable",
      "type": "function"
    },
    {
      "anonymous": false,
      "inputs": [
        {
          "indexed": false,
          "name": "collectibleId",
          "type": "uint256"
        },
        {
          "indexed": false,
          "name": "latestSpecialisation",
          "type": "uint256"
        }
      ],
      "name": "updateSpecialisation",
      "type": "event"
    },
    {
      "anonymous": false,
      "inputs": [
        {
          "indexed": false,
          "name": "collectibleId",
          "type": "uint256"
        },
        {
          "indexed": false,
          "name": "latestLevel",
          "type": "uint256"
        },
        {
          "indexed": false,
          "name": "latestAttribute",
          "type": "uint256"
        }
      ],
      "name": "upgradeWeapon",
      "type": "event"
    },
    {
      "anonymous": false,
      "inputs": [
        {
          "indexed": false,
          "name": "collectibleId",
          "type": "uint256"
        },
        {
          "indexed": false,
          "name": "latestLevel",
          "type": "uint256"
        },
        {
          "indexed": false,
          "name": "latestAttribute",
          "type": "uint256"
        }
      ],
      "name": "upgradeArmor",
      "type": "event"
    },
    {
      "anonymous": false,
      "inputs": [
        {
          "indexed": false,
          "name": "collectibleId",
          "type": "uint256"
        },
        {
          "indexed": false,
          "name": "itemType",
          "type": "uint256"
        }
      ],
      "name": "newCollectible",
      "type": "event"
    },
    {
      "anonymous": false,
      "inputs": [
        {
          "indexed": true,
          "name": "previousOwner",
          "type": "address"
        },
        {
          "indexed": true,
          "name": "newOwner",
          "type": "address"
        }
      ],
      "name": "OwnershipTransferred",
      "type": "event"
    },
    {
      "constant": false,
      "inputs": [
        {
          "name": "_collectibleId",
          "type": "uint8[]"
        },
        {
          "name": "_specialisationPoint",
          "type": "uint8[]"
        }
      ],
      "name": "specialisationAdd",
      "outputs": [],
      "payable": false,
      "stateMutability": "nonpayable",
      "type": "function"
    }
  ],
  "bytecode": "0x60806040526000600155336000806101000a81548173ffffffffffffffffffffffffffffffffffffffff021916908373ffffffffffffffffffffffffffffffffffffffff1602179055506000809054906101000a900473ffffffffffffffffffffffffffffffffffffffff1673ffffffffffffffffffffffffffffffffffffffff16600073ffffffffffffffffffffffffffffffffffffffff167f8be0079c531659141344cd1fd0a4f28419497f9722a3daafe3b4186f6b6457e060405160405180910390a36110f1806100d46000396000f3fe608060405234801561001057600080fd5b50600436106100b0576000357c0100000000000000000000000000000000000000000000000000000000900480638da5cb5b116100835780638da5cb5b146102d75780638ee31e0f146103215780638f32d59b146103ba578063f07c4f17146103dc578063f2fde38b1461040a576100b0565b806309e853f7146100b55780630a09859d1461020157806327fbc6371461025f578063715018a6146102cd575b600080fd5b6101ff600480360360408110156100cb57600080fd5b81019080803590602001906401000000008111156100e857600080fd5b8201836020820111156100fa57600080fd5b8035906020019184602083028401116401000000008311171561011c57600080fd5b919080806020026020016040519081016040528093929190818152602001838360200280828437600081840152601f19601f8201169050808301925050505050505091929192908035906020019064010000000081111561017c57600080fd5b82018360208201111561018e57600080fd5b803590602001918460208302840111640100000000831117156101b057600080fd5b919080806020026020016040519081016040528093929190818152602001838360200280828437600081840152601f19601f82011690508083019250505050505050919291929050505061044e565b005b61022d6004803603602081101561021757600080fd5b8101908080359060200190929190505050610650565b604051808681526020018581526020018481526020018381526020018281526020019550505050505060405180910390f35b61028b6004803603602081101561027557600080fd5b8101908080359060200190929190505050610695565b604051808273ffffffffffffffffffffffffffffffffffffffff1673ffffffffffffffffffffffffffffffffffffffff16815260200191505060405180910390f35b6102d56106c8565b005b6102df61079a565b604051808273ffffffffffffffffffffffffffffffffffffffff1673ffffffffffffffffffffffffffffffffffffffff16815260200191505060405180910390f35b6103636004803603602081101561033757600080fd5b81019080803573ffffffffffffffffffffffffffffffffffffffff1690602001909291905050506107c3565b6040518080602001828103825283818151815260200191508051906020019060200280838360005b838110156103a657808201518184015260208101905061038b565b505050509050019250505060405180910390f35b6103c26108f4565b604051808215151515815260200191505060405180910390f35b610408600480360360208110156103f257600080fd5b810190808035906020019092919050505061094b565b005b61044c6004803603602081101561042057600080fd5b81019080803573ffffffffffffffffffffffffffffffffffffffff169060200190929190505050610b84565b005b60008090505b825181101561064b576104c4828281518110151561046e57fe5b9060200190602002015160ff166002858481518110151561048b57fe5b9060200190602002015160ff168154811015156104a457fe5b906000526020600020906005020160040154610ba390919063ffffffff16565b600284838151811015156104d457fe5b9060200190602002015160ff168154811015156104ed57fe5b9060005260206000209060050201600401819055507ff636b4db4e636a6d68eb63d29d11b9a6e52d459758b79083e012728e9a754967838281518110151561053157fe5b906020019060200201516002858481518110151561054b57fe5b9060200190602002015160ff1681548110151561056457fe5b906000526020600020906005020160040154604051808360ff1681526020018281526020019250505060405180910390a160028084838151811015156105a657fe5b9060200190602002015160ff168154811015156105bf57fe5b90600052602060002090600502016000015410156105ff576105fa83828151811015156105e857fe5b9060200190602002015160ff16610bc1565b61063e565b61063d838281518110151561061057fe5b9060200190602002015160ff16838381518110151561062b57fe5b9060200190602002015160ff16610d58565b5b8080600101915050610454565b505050565b60028181548110151561065f57fe5b90600052602060002090600502016000915090508060000154908060010154908060020154908060030154908060040154905085565b60036020528060005260406000206000915054906101000a900473ffffffffffffffffffffffffffffffffffffffff1681565b6106d06108f4565b15156106db57600080fd5b600073ffffffffffffffffffffffffffffffffffffffff166000809054906101000a900473ffffffffffffffffffffffffffffffffffffffff1673ffffffffffffffffffffffffffffffffffffffff167f8be0079c531659141344cd1fd0a4f28419497f9722a3daafe3b4186f6b6457e060405160405180910390a360008060006101000a81548173ffffffffffffffffffffffffffffffffffffffff021916908373ffffffffffffffffffffffffffffffffffffffff160217905550565b60008060009054906101000a900473ffffffffffffffffffffffffffffffffffffffff16905090565b606080600460008473ffffffffffffffffffffffffffffffffffffffff1673ffffffffffffffffffffffffffffffffffffffff168152602001908152602001600020546040519080825280602002602001820160405280156108345781602001602082028038833980820191505090505b509050600080905060008090505b6002805490508110156108e9578473ffffffffffffffffffffffffffffffffffffffff166003600083815260200190815260200160002060009054906101000a900473ffffffffffffffffffffffffffffffffffffffff1673ffffffffffffffffffffffffffffffffffffffff1614156108dc578083838151811015156108c557fe5b906020019060200201818152505081806001019250505b8080600101915050610842565b508192505050919050565b60008060009054906101000a900473ffffffffffffffffffffffffffffffffffffffff1673ffffffffffffffffffffffffffffffffffffffff163373ffffffffffffffffffffffffffffffffffffffff1614905090565b60008090505b81811015610b80576000610963610eb8565b9050600061096f610ec9565b905060008082141561098457600390506109b9565b600182141561099657600590506109b8565b60028214156109a857600890506109b7565b60038214156109b657600a90505b5b5b5b6000600260a06040519081016040528086815260200185815260200184815260200160018152602001600081525090806001815401808255809150509060018203906000526020600020906005020160009091929091909150600082015181600001556020820151816001015560408201518160020155606082015181600301556080820151816004015550509050336003600083815260200190815260200160002060006101000a81548173ffffffffffffffffffffffffffffffffffffffff021916908373ffffffffffffffffffffffffffffffffffffffff160217905550610aed6001600460003373ffffffffffffffffffffffffffffffffffffffff1673ffffffffffffffffffffffffffffffffffffffff16815260200190815260200160002054610ba390919063ffffffff16565b600460003373ffffffffffffffffffffffffffffffffffffffff1673ffffffffffffffffffffffffffffffffffffffff168152602001908152602001600020819055507f61d6fed6f3db1999225d1ee5bc4a82f8ee70a5327822218242310285d524db348185604051808381526020018281526020019250505060405180910390a1505050508080600101915050610951565b5050565b610b8c6108f4565b1515610b9757600080fd5b610ba081610f29565b50565b6000808284019050838110151515610bb757fe5b8091505092915050565b80600281815481101515610bd157fe5b906000526020600020906005020160030154600a600283815481101515610bf457fe5b906000526020600020906005020160040154811515610c0f57fe5b0410151515610c1d57600080fd5b610c516001600284815481101515610c3157fe5b906000526020600020906005020160030154610ba390919063ffffffff16565b600283815481101515610c6057fe5b906000526020600020906005020160030181905550610ca96003600284815481101515610c8957fe5b906000526020600020906005020160020154610ba390919063ffffffff16565b600283815481101515610cb857fe5b9060005260206000209060050201600201819055507f68e76339247f110b9031d56bb006c145b21e98e914c87105c2136c2a04f26fc182600284815481101515610cfe57fe5b906000526020600020906005020160030154600285815481101515610d1f57fe5b90600052602060002090600502016002015460405180848152602001838152602001828152602001935050505060405180910390a15050565b80600a8110151515610d6957600080fd5b6046610d756064611023565b1115610eb357610daf6001600285815481101515610d8f57fe5b906000526020600020906005020160030154610ba390919063ffffffff16565b600284815481101515610dbe57fe5b906000526020600020906005020160030181905550610e076003600285815481101515610de757fe5b906000526020600020906005020160020154610ba390919063ffffffff16565b600284815481101515610e1657fe5b9060005260206000209060050201600201819055507fbe2b5728ba99982c37ad820b8f672a446d9fbc77b631099e89d3f7ab3ad0ea2683600285815481101515610e5c57fe5b906000526020600020906005020160030154600286815481101515610e7d57fe5b90600052602060002090600502016002015460405180848152602001838152602001828152602001935050505060405180910390a15b505050565b6000610ec46003611023565b905090565b600080610ed66064611023565b90506046811015610eeb576000915050610f26565b605a811015610efe576001915050610f26565b6060811015610f11576002915050610f26565b6064811015610f24576003915050610f26565b505b90565b600073ffffffffffffffffffffffffffffffffffffffff168173ffffffffffffffffffffffffffffffffffffffff1614151515610f6557600080fd5b8073ffffffffffffffffffffffffffffffffffffffff166000809054906101000a900473ffffffffffffffffffffffffffffffffffffffff1673ffffffffffffffffffffffffffffffffffffffff167f8be0079c531659141344cd1fd0a4f28419497f9722a3daafe3b4186f6b6457e060405160405180910390a3806000806101000a81548173ffffffffffffffffffffffffffffffffffffffff021916908373ffffffffffffffffffffffffffffffffffffffff16021790555050565b600061103a60018054610ba390919063ffffffff16565b50814233600154604051602001808481526020018373ffffffffffffffffffffffffffffffffffffffff1673ffffffffffffffffffffffffffffffffffffffff166c01000000000000000000000000028152601401828152602001935050505060405160208183030381529060405280519060200120600190048115156110bd57fe5b06905091905056fea165627a7a72305820bb6d9d3c03331e47c4534c1dd10ddea43ae4fb69feba1b7a225affafc663c7150029",
  "source": "pragma solidity ^0.5.2;\nimport \"./safemath.sol\";\nimport \"./CollectibleFactory.sol\";\n\ncontract CollectibleUpgrade is CollectibleFactory {\n    using SafeMath for uint256;\n\n    event updateSpecialisation(\n        uint256 collectibleId,\n        uint256 latestSpecialisation\n    );\n    event upgradeWeapon(\n        uint256 collectibleId,\n        uint256 latestLevel,\n        uint256 latestAttribute\n    );\n    event upgradeArmor(\n        uint256 collectibleId,\n        uint256 latestLevel,\n        uint256 latestAttribute\n    );\n\n    modifier onlyOwnerOf(uint256 _collectibleId) {\n        require(msg.sender == collectibleToOwner[_collectibleId]);\n        _;\n    }\n\n    modifier killCountOver(uint256 _collectibleId) {\n        require(\n            (collectibles[_collectibleId].specialisationCount / 10) >=\n                collectibles[_collectibleId].itemLevel\n        );\n        _;\n    }\n\n    modifier survivalPointOver(uint256 _survivalPoint) {\n        require(_survivalPoint >= 10);\n        _;\n    }\n\n    function specialisationAdd(\n        uint8[] memory _collectibleId,\n        uint8[] memory _specialisationPoint\n    ) public {\n        for (uint256 i = 0; i < _collectibleId.length; i++) {\n            collectibles[_collectibleId[i]]\n                .specialisationCount = collectibles[_collectibleId[i]]\n                .specialisationCount\n                .add(_specialisationPoint[i]);\n            emit updateSpecialisation(\n                _collectibleId[i],\n                collectibles[_collectibleId[i]].specialisationCount\n            );\n            if (collectibles[_collectibleId[i]].itemType < 2) {\n                weaponLevelUp(_collectibleId[i]);\n            } else {\n                armorLevelUp(_collectibleId[i], _specialisationPoint[i]);\n            }\n        }\n    }\n\n    /*\n        Weapon Level Up Rules:\n        Every 10 kills give +3 attack\n    */\n    function weaponLevelUp(uint256 _collectibleId)\n        internal\n        killCountOver(_collectibleId)\n    {\n        collectibles[_collectibleId].itemLevel = collectibles[_collectibleId]\n            .itemLevel\n            .add(1);\n        collectibles[_collectibleId]\n            .itemAttribute = collectibles[_collectibleId].itemAttribute.add(3);\n        emit upgradeWeapon(\n            _collectibleId,\n            collectibles[_collectibleId].itemLevel,\n            collectibles[_collectibleId].itemAttribute\n        );\n    }\n\n    /*\n        Armor Level Up Rules:\n        Survived from more than 10 attacks in a match has a chance to level up armor\n        _survivalPoint = attacks taken from enemy, each attack +1\n    */\n    function armorLevelUp(uint256 _collectibleId, uint256 _survivalPoint)\n        internal\n        survivalPointOver(_survivalPoint)\n    {\n        if (super.randMod(100) > 70) {\n            collectibles[_collectibleId]\n                .itemLevel = collectibles[_collectibleId].itemLevel.add(1);\n            collectibles[_collectibleId]\n                .itemAttribute = collectibles[_collectibleId].itemAttribute.add(\n                3\n            );\n            emit upgradeArmor(\n                _collectibleId,\n                collectibles[_collectibleId].itemLevel,\n                collectibles[_collectibleId].itemAttribute\n            );\n        }\n    }\n}\n",
  "sourcePath": "C:\\Users\\CHEUNG YAT HO\\Desktop\\LootHunter-dev\\contracts\\CollectibleUpgrade.sol",
  "compiler": {
    "name": "solc",
    "version": "0.5.2+commit.1df8f40c.Emscripten.clang"
  },
  "schemaVersion": "3.0.23",
  "updatedAt": "2020-07-21T20:01:05.096Z",
  "devdoc": {
    "methods": {
      "isOwner()": {
        "return": "true if `msg.sender` is the owner of the contract."
      },
      "owner()": {
        "return": "the address of the owner."
      },
      "renounceOwnership()": {
        "details": "Allows the current owner to relinquish control of the contract."
      },
      "transferOwnership(address)": {
        "details": "Allows the current owner to transfer control of the contract to a newOwner.",
        "params": {
          "newOwner": "The address to transfer ownership to."
        }
      }
    }
  },
  "userdoc": {
    "methods": {
      "renounceOwnership()": {
        "notice": "Renouncing to ownership will leave the contract without an owner. It will not be possible to call the functions with the `onlyOwner` modifier anymore."
      }
    }
  }
}