{
  "contractName": "CollectibleFactory",
  "abi": [
    {
      "constant": true,
      "inputs": [
        {
          "name": "",
          "type": "uint256"
        }
      ],
      "name": "collectibles",
      "outputs": [
        {
          "name": "itemType",
          "type": "uint256"
        },
        {
          "name": "itemRareness",
          "type": "uint256"
        },
        {
          "name": "itemAttribute",
          "type": "uint256"
        },
        {
          "name": "itemLevel",
          "type": "uint256"
        },
        {
          "name": "specialisationCount",
          "type": "uint256"
        }
      ],
      "payable": false,
      "stateMutability": "view",
      "type": "function"
    },
    {
      "constant": true,
      "inputs": [
        {
          "name": "",
          "type": "uint256"
        }
      ],
      "name": "collectibleToOwner",
      "outputs": [
        {
          "name": "",
          "type": "address"
        }
      ],
      "payable": false,
      "stateMutability": "view",
      "type": "function"
    },
    {
      "constant": false,
      "inputs": [],
      "name": "renounceOwnership",
      "outputs": [],
      "payable": false,
      "stateMutability": "nonpayable",
      "type": "function"
    },
    {
      "constant": true,
      "inputs": [],
      "name": "owner",
      "outputs": [
        {
          "name": "",
          "type": "address"
        }
      ],
      "payable": false,
      "stateMutability": "view",
      "type": "function"
    },
    {
      "constant": true,
      "inputs": [],
      "name": "isOwner",
      "outputs": [
        {
          "name": "",
          "type": "bool"
        }
      ],
      "payable": false,
      "stateMutability": "view",
      "type": "function"
    },
    {
      "constant": false,
      "inputs": [
        {
          "name": "newOwner",
          "type": "address"
        }
      ],
      "name": "transferOwnership",
      "outputs": [],
      "payable": false,
      "stateMutability": "nonpayable",
      "type": "function"
    },
    {
      "anonymous": false,
      "inputs": [
        {
          "indexed": false,
          "name": "collectibleId",
          "type": "uint256"
        },
        {
          "indexed": false,
          "name": "itemType",
          "type": "uint256"
        }
      ],
      "name": "newCollectible",
      "type": "event"
    },
    {
      "anonymous": false,
      "inputs": [
        {
          "indexed": true,
          "name": "previousOwner",
          "type": "address"
        },
        {
          "indexed": true,
          "name": "newOwner",
          "type": "address"
        }
      ],
      "name": "OwnershipTransferred",
      "type": "event"
    },
    {
      "constant": false,
      "inputs": [
        {
          "name": "_numberOfCollectibles",
          "type": "uint256"
        }
      ],
      "name": "obtainCollectible",
      "outputs": [],
      "payable": false,
      "stateMutability": "nonpayable",
      "type": "function"
    },
    {
      "constant": true,
      "inputs": [
        {
          "name": "_owner",
          "type": "address"
        }
      ],
      "name": "getCollectiblesId",
      "outputs": [
        {
          "name": "",
          "type": "uint256[]"
        }
      ],
      "payable": false,
      "stateMutability": "view",
      "type": "function"
    }
  ],
  "bytecode": "0x60806040526000600155336000806101000a81548173ffffffffffffffffffffffffffffffffffffffff021916908373ffffffffffffffffffffffffffffffffffffffff1602179055506000809054906101000a900473ffffffffffffffffffffffffffffffffffffffff1673ffffffffffffffffffffffffffffffffffffffff16600073ffffffffffffffffffffffffffffffffffffffff167f8be0079c531659141344cd1fd0a4f28419497f9722a3daafe3b4186f6b6457e060405160405180910390a3610aa1806100d46000396000f3fe608060405234801561001057600080fd5b50600436106100a5576000357c0100000000000000000000000000000000000000000000000000000000900480638ee31e0f116100785780638ee31e0f146101ca5780638f32d59b14610263578063f07c4f1714610285578063f2fde38b146102b3576100a5565b80630a09859d146100aa57806327fbc63714610108578063715018a6146101765780638da5cb5b14610180575b600080fd5b6100d6600480360360208110156100c057600080fd5b81019080803590602001909291905050506102f7565b604051808681526020018581526020018481526020018381526020018281526020019550505050505060405180910390f35b6101346004803603602081101561011e57600080fd5b810190808035906020019092919050505061033c565b604051808273ffffffffffffffffffffffffffffffffffffffff1673ffffffffffffffffffffffffffffffffffffffff16815260200191505060405180910390f35b61017e61036f565b005b610188610441565b604051808273ffffffffffffffffffffffffffffffffffffffff1673ffffffffffffffffffffffffffffffffffffffff16815260200191505060405180910390f35b61020c600480360360208110156101e057600080fd5b81019080803573ffffffffffffffffffffffffffffffffffffffff16906020019092919050505061046a565b6040518080602001828103825283818151815260200191508051906020019060200280838360005b8381101561024f578082015181840152602081019050610234565b505050509050019250505060405180910390f35b61026b61059b565b604051808215151515815260200191505060405180910390f35b6102b16004803603602081101561029b57600080fd5b81019080803590602001909291905050506105f2565b005b6102f5600480360360208110156102c957600080fd5b81019080803573ffffffffffffffffffffffffffffffffffffffff16906020019092919050505061082b565b005b60028181548110151561030657fe5b90600052602060002090600502016000915090508060000154908060010154908060020154908060030154908060040154905085565b60036020528060005260406000206000915054906101000a900473ffffffffffffffffffffffffffffffffffffffff1681565b61037761059b565b151561038257600080fd5b600073ffffffffffffffffffffffffffffffffffffffff166000809054906101000a900473ffffffffffffffffffffffffffffffffffffffff1673ffffffffffffffffffffffffffffffffffffffff167f8be0079c531659141344cd1fd0a4f28419497f9722a3daafe3b4186f6b6457e060405160405180910390a360008060006101000a81548173ffffffffffffffffffffffffffffffffffffffff021916908373ffffffffffffffffffffffffffffffffffffffff160217905550565b60008060009054906101000a900473ffffffffffffffffffffffffffffffffffffffff16905090565b606080600460008473ffffffffffffffffffffffffffffffffffffffff1673ffffffffffffffffffffffffffffffffffffffff168152602001908152602001600020546040519080825280602002602001820160405280156104db5781602001602082028038833980820191505090505b509050600080905060008090505b600280549050811015610590578473ffffffffffffffffffffffffffffffffffffffff166003600083815260200190815260200160002060009054906101000a900473ffffffffffffffffffffffffffffffffffffffff1673ffffffffffffffffffffffffffffffffffffffff1614156105835780838381518110151561056c57fe5b906020019060200201818152505081806001019250505b80806001019150506104e9565b508192505050919050565b60008060009054906101000a900473ffffffffffffffffffffffffffffffffffffffff1673ffffffffffffffffffffffffffffffffffffffff163373ffffffffffffffffffffffffffffffffffffffff1614905090565b60008090505b8181101561082757600061060a61084a565b9050600061061661085b565b905060008082141561062b5760039050610660565b600182141561063d576005905061065f565b600282141561064f576008905061065e565b600382141561065d57600a90505b5b5b5b6000600260a06040519081016040528086815260200185815260200184815260200160018152602001600081525090806001815401808255809150509060018203906000526020600020906005020160009091929091909150600082015181600001556020820151816001015560408201518160020155606082015181600301556080820151816004015550509050336003600083815260200190815260200160002060006101000a81548173ffffffffffffffffffffffffffffffffffffffff021916908373ffffffffffffffffffffffffffffffffffffffff1602179055506107946001600460003373ffffffffffffffffffffffffffffffffffffffff1673ffffffffffffffffffffffffffffffffffffffff168152602001908152602001600020546108bb90919063ffffffff16565b600460003373ffffffffffffffffffffffffffffffffffffffff1673ffffffffffffffffffffffffffffffffffffffff168152602001908152602001600020819055507f61d6fed6f3db1999225d1ee5bc4a82f8ee70a5327822218242310285d524db348185604051808381526020018281526020019250505060405180910390a15050505080806001019150506105f8565b5050565b61083361059b565b151561083e57600080fd5b610847816108d9565b50565b600061085660036109d3565b905090565b60008061086860646109d3565b9050604681101561087d5760009150506108b8565b605a8110156108905760019150506108b8565b60608110156108a35760029150506108b8565b60648110156108b65760039150506108b8565b505b90565b60008082840190508381101515156108cf57fe5b8091505092915050565b600073ffffffffffffffffffffffffffffffffffffffff168173ffffffffffffffffffffffffffffffffffffffff161415151561091557600080fd5b8073ffffffffffffffffffffffffffffffffffffffff166000809054906101000a900473ffffffffffffffffffffffffffffffffffffffff1673ffffffffffffffffffffffffffffffffffffffff167f8be0079c531659141344cd1fd0a4f28419497f9722a3daafe3b4186f6b6457e060405160405180910390a3806000806101000a81548173ffffffffffffffffffffffffffffffffffffffff021916908373ffffffffffffffffffffffffffffffffffffffff16021790555050565b60006109ea600180546108bb90919063ffffffff16565b50814233600154604051602001808481526020018373ffffffffffffffffffffffffffffffffffffffff1673ffffffffffffffffffffffffffffffffffffffff166c0100000000000000000000000002815260140182815260200193505050506040516020818303038152906040528051906020012060019004811515610a6d57fe5b06905091905056fea165627a7a7230582010cfe1d5107ffe4fc87b410e3962cf7086104626e54d7bc085aa6b171f04505e0029",
  "source": "pragma solidity ^0.5.2;\nimport \"./ownable.sol\";\nimport \"./safemath.sol\";\n\ncontract CollectibleFactory is Ownable {\n    \n    using SafeMath for uint256;\n    \n    uint randNonce = 0;\n\n    event newCollectible(uint collectibleId, uint itemType);\n    \n    struct Collectible {\n        uint itemType;\n        /* 3 item types for now\n        0 - sword\n        1 - bow\n        2 - armor\n        */\n        uint itemRareness;\n        /* 4 kinds of item rareness\n        0 - normal\n        1 - rare\n        2 - epic\n        3 - mythic\n        */\n        uint itemAttribute;\n        uint itemLevel;\n        uint specialisationCount;\n        /* \n            killCount for weapon\n            survivalPoint for armor\n        */\n    }\n    \n    Collectible[] public collectibles;\n    \n    mapping (uint => address) public collectibleToOwner;\n    mapping (address => uint) ownerCollectibleCount;\n    \n    // When player wins a match, collectibles will be distributed to them\n    function obtainCollectible(uint _numberOfCollectibles) public { \n        for(uint i = 0; i < _numberOfCollectibles; i++) {\n            uint _type = typeGenerate();\n            uint _rareness = rarenessGenerate();\n            uint _attribute;\n            if(_rareness == 0) \n                _attribute = 3;\n            else if(_rareness == 1)\n                _attribute = 5;\n            else if(_rareness == 2)\n                _attribute = 8;\n            else if(_rareness == 3)\n                _attribute = 10;\n        \n            uint _id = collectibles.push(Collectible(_type, _rareness, _attribute, 1, 0));\n            collectibleToOwner[_id] = msg.sender;\n            ownerCollectibleCount[msg.sender] = ownerCollectibleCount[msg.sender].add(1);\n            emit newCollectible(_id, _type);\n        }\n    }\n    \n    function typeGenerate() internal view returns (uint) {\n        return randMod(3);\n    }\n    \n    function rarenessGenerate() internal view returns (uint) {\n        uint randRareness = randMod(100);\n        /*\n        70% - normal\n        20% - rare\n        7% - epic\n        3% - mythic\n        */\n        if(randRareness < 70) return 0; // 0 to 69 for normal\n        else if(randRareness < 90) return 1; // 70 to 89 for rare\n        else if(randRareness < 96) return 2; // 90 to 96 for epic\n        else if(randRareness < 100) return 3; // 97 to 99 for mythic\n    }\n\n    function randMod(uint _modulus) internal view returns(uint) { // For determining itemType or itemRareness\n        randNonce.add(1);\n        return uint(keccak256(abi.encodePacked(now, msg.sender, randNonce))) % _modulus;\n    }\n\n    // Get Collectibles ID that belongs to the player\n    function getCollectiblesId(address _owner) external view returns(uint[] memory) {\n        uint[] memory result = new uint[](ownerCollectibleCount[_owner]);\n        uint counter = 0;\n        for (uint i = 0; i < collectibles.length; i++) {\n            if (collectibleToOwner[i] == _owner) {\n            result[counter] = i;\n            counter++;\n      }\n    }\n        return result;\n    }\n}",
  "sourcePath": "C:\\Users\\CHEUNG YAT HO\\Desktop\\LootHunter-dev\\contracts\\CollectibleFactory.sol",
  "compiler": {
    "name": "solc",
    "version": "0.5.2+commit.1df8f40c.Emscripten.clang"
  },
  "schemaVersion": "3.0.23",
  "updatedAt": "2020-07-21T20:01:05.077Z",
  "devdoc": {
    "methods": {
      "isOwner()": {
        "return": "true if `msg.sender` is the owner of the contract."
      },
      "owner()": {
        "return": "the address of the owner."
      },
      "renounceOwnership()": {
        "details": "Allows the current owner to relinquish control of the contract."
      },
      "transferOwnership(address)": {
        "details": "Allows the current owner to transfer control of the contract to a newOwner.",
        "params": {
          "newOwner": "The address to transfer ownership to."
        }
      }
    }
  },
  "userdoc": {
    "methods": {
      "renounceOwnership()": {
        "notice": "Renouncing to ownership will leave the contract without an owner. It will not be possible to call the functions with the `onlyOwner` modifier anymore."
      }
    }
  }
}