{
  "contractName": "GameController",
  "abi": [
    {
      "constant": true,
      "inputs": [
        {
          "name": "",
          "type": "uint256"
        }
      ],
      "name": "chess",
      "outputs": [
        {
          "name": "owner",
          "type": "address"
        },
        {
          "name": "matchIndex",
          "type": "uint256"
        },
        {
          "name": "id",
          "type": "uint256"
        },
        {
          "name": "roundNum",
          "type": "uint256"
        },
        {
          "name": "chessType",
          "type": "string"
        },
        {
          "name": "weaponType",
          "type": "string"
        },
        {
          "name": "attack",
          "type": "uint256"
        },
        {
          "name": "defense",
          "type": "uint256"
        }
      ],
      "payable": false,
      "stateMutability": "view",
      "type": "function"
    },
    {
      "constant": true,
      "inputs": [
        {
          "name": "",
          "type": "uint256"
        }
      ],
      "name": "chessToOwner",
      "outputs": [
        {
          "name": "",
          "type": "address"
        }
      ],
      "payable": false,
      "stateMutability": "view",
      "type": "function"
    },
    {
      "anonymous": false,
      "inputs": [
        {
          "indexed": true,
          "name": "playerId",
          "type": "address"
        },
        {
          "indexed": true,
          "name": "matchIndex",
          "type": "uint256"
        },
        {
          "indexed": true,
          "name": "chessId",
          "type": "uint256"
        },
        {
          "indexed": false,
          "name": "chessType",
          "type": "string"
        },
        {
          "indexed": false,
          "name": "weaponType",
          "type": "string"
        },
        {
          "indexed": false,
          "name": "attack",
          "type": "uint256"
        },
        {
          "indexed": false,
          "name": "defense",
          "type": "uint256"
        }
      ],
      "name": "chessInitialize",
      "type": "event"
    },
    {
      "anonymous": false,
      "inputs": [
        {
          "indexed": true,
          "name": "playerId",
          "type": "address"
        },
        {
          "indexed": true,
          "name": "matchIndex",
          "type": "uint256"
        },
        {
          "indexed": true,
          "name": "roundNum",
          "type": "uint256"
        },
        {
          "indexed": false,
          "name": "chessId",
          "type": "uint256"
        },
        {
          "indexed": false,
          "name": "health",
          "type": "uint256"
        },
        {
          "indexed": false,
          "name": "xCord",
          "type": "uint256"
        },
        {
          "indexed": false,
          "name": "yCord",
          "type": "uint256"
        }
      ],
      "name": "chessAction",
      "type": "event"
    },
    {
      "anonymous": false,
      "inputs": [
        {
          "indexed": true,
          "name": "playerId",
          "type": "address"
        },
        {
          "indexed": true,
          "name": "matchIndex",
          "type": "uint256"
        },
        {
          "indexed": false,
          "name": "result",
          "type": "string"
        }
      ],
      "name": "announceResult",
      "type": "event"
    },
    {
      "anonymous": false,
      "inputs": [
        {
          "indexed": true,
          "name": "playerId",
          "type": "address"
        },
        {
          "indexed": false,
          "name": "winNumber",
          "type": "uint256"
        },
        {
          "indexed": false,
          "name": "loseNumber",
          "type": "uint256"
        }
      ],
      "name": "gameRecord",
      "type": "event"
    },
    {
      "constant": false,
      "inputs": [
        {
          "name": "_chessId",
          "type": "uint256[]"
        },
        {
          "name": "_chessType",
          "type": "string[]"
        },
        {
          "name": "_weaponType",
          "type": "string[]"
        },
        {
          "name": "_attack",
          "type": "uint256[]"
        },
        {
          "name": "_defense",
          "type": "uint256[]"
        }
      ],
      "name": "initializeMatch",
      "outputs": [],
      "payable": false,
      "stateMutability": "nonpayable",
      "type": "function"
    },
    {
      "constant": false,
      "inputs": [
        {
          "name": "_currentMatch",
          "type": "uint256"
        },
        {
          "name": "_roundNum",
          "type": "uint256"
        },
        {
          "name": "_chessId",
          "type": "uint256[10]"
        },
        {
          "name": "_health",
          "type": "uint256[10]"
        },
        {
          "name": "_xCord",
          "type": "uint256[10]"
        },
        {
          "name": "_yCord",
          "type": "uint256[10]"
        }
      ],
      "name": "updateRoundRecord",
      "outputs": [],
      "payable": false,
      "stateMutability": "nonpayable",
      "type": "function"
    },
    {
      "constant": false,
      "inputs": [
        {
          "name": "_currentMatch",
          "type": "uint256"
        },
        {
          "name": "_win",
          "type": "bool"
        }
      ],
      "name": "resultAnnounce",
      "outputs": [],
      "payable": false,
      "stateMutability": "nonpayable",
      "type": "function"
    },
    {
      "constant": true,
      "inputs": [
        {
          "name": "_player",
          "type": "address"
        }
      ],
      "name": "getMatchIndex",
      "outputs": [
        {
          "name": "",
          "type": "uint256"
        }
      ],
      "payable": false,
      "stateMutability": "view",
      "type": "function"
    },
    {
      "constant": true,
      "inputs": [
        {
          "name": "_matchIndex",
          "type": "uint256"
        }
      ],
      "name": "getRoundIndex",
      "outputs": [
        {
          "name": "",
          "type": "uint256"
        }
      ],
      "payable": false,
      "stateMutability": "view",
      "type": "function"
    },
    {
      "constant": true,
      "inputs": [
        {
          "name": "_player",
          "type": "address"
        }
      ],
      "name": "getWinIndex",
      "outputs": [
        {
          "name": "",
          "type": "uint256"
        }
      ],
      "payable": false,
      "stateMutability": "view",
      "type": "function"
    },
    {
      "constant": true,
      "inputs": [
        {
          "name": "_player",
          "type": "address"
        }
      ],
      "name": "getLoseIndex",
      "outputs": [
        {
          "name": "",
          "type": "uint256"
        }
      ],
      "payable": false,
      "stateMutability": "view",
      "type": "function"
    }
  ],
  "bytecode": "0x608060405234801561001057600080fd5b50611bdf806100206000396000f3fe608060405234801561001057600080fd5b50600436106100b0576000357c0100000000000000000000000000000000000000000000000000000000900480637ea338d0116100835780637ea338d01461015457806384fb3d1b146101845780638e6ad981146101b4578063aee7d55b146101d0578063d8f0098714610200576100b0565b80630143dcd2146100b55780632f6aabc5146100d15780633deacf16146101015780635935be1f14610138575b600080fd5b6100cf60048036036100ca9190810190611706565b610230565b005b6100eb60048036036100e691908101906116a1565b61061a565b6040516100f8919061198f565b60405180910390f35b61011b600480360361011691908101906116a1565b6106cd565b60405161012f989796959493929190611870565b60405180910390f35b610152600480360361014d91908101906116ca565b610874565b005b61016e60048036036101699190810190611589565b610a94565b60405161017b919061198f565b60405180910390f35b61019e60048036036101999190810190611589565b610add565b6040516101ab919061198f565b60405180910390f35b6101ce60048036036101c991908101906115b2565b610b26565b005b6101ea60048036036101e591908101906116a1565b610fbd565b6040516101f79190611855565b60405180910390f35b61021a60048036036102159190810190611589565b610ff0565b604051610227919061198f565b60405180910390f35b6000600160003373ffffffffffffffffffffffffffffffffffffffff1673ffffffffffffffffffffffffffffffffffffffff168152602001908152602001600020549050606061027f33611039565b905060008090505b815181101561060f5760008090505b600a811015610601573373ffffffffffffffffffffffffffffffffffffffff16600084848151811015156102c657fe5b906020019060200201518154811015156102dc57fe5b90600052602060002090600b020160000160009054906101000a900473ffffffffffffffffffffffffffffffffffffffff1673ffffffffffffffffffffffffffffffffffffffff161480156103675750836000848481518110151561033d57fe5b9060200190602002015181548110151561035357fe5b90600052602060002090600b020160010154145b80156103bb57508781600a8110151561037c57fe5b60200201516000848481518110151561039157fe5b906020019060200201518154811015156103a757fe5b90600052602060002090600b020160020154145b156105f45788600084848151811015156103d157fe5b906020019060200201518154811015156103e757fe5b90600052602060002090600b0201600301819055506000838381518110151561040c57fe5b9060200190602002015181548110151561042257fe5b90600052602060002090600b02016008018782600a8110151561044157fe5b602002015190806001815401808255809150509060018203906000526020600020016000909192909190915055506000838381518110151561047f57fe5b9060200190602002015181548110151561049557fe5b90600052602060002090600b02016009018682600a811015156104b457fe5b60200201519080600181540180825580915050906001820390600052602060002001600090919290919091505550600083838151811015156104f257fe5b9060200190602002015181548110151561050857fe5b90600052602060002090600b0201600a018582600a8110151561052757fe5b6020020151908060018154018082558091505090600182039060005260206000200160009091929091909150555088843373ffffffffffffffffffffffffffffffffffffffff167f57aa55604454efc34b46d02eb1dd0979cf6a84164a927b7bd3b4ddb91e97e01e8b85600a8110151561059d57fe5b60200201518b86600a811015156105b057fe5b60200201518b87600a811015156105c357fe5b60200201518b88600a811015156105d657fe5b60200201516040516105eb94939291906119d3565b60405180910390a45b8080600101915050610296565b508080600101915050610287565b505050505050505050565b6000606061062733611039565b905060008090505b81518110156106c557836000838381518110151561064957fe5b9060200190602002015181548110151561065f57fe5b90600052602060002090600b02016001015414156106b8576000828281518110151561068757fe5b9060200190602002015181548110151561069d57fe5b90600052602060002090600b020160030154925050506106c8565b808060010191505061062f565b50505b919050565b6000818154811015156106dc57fe5b90600052602060002090600b02016000915090508060000160009054906101000a900473ffffffffffffffffffffffffffffffffffffffff1690806001015490806002015490806003015490806004018054600181600116156101000203166002900480601f0160208091040260200160405190810160405280929190818152602001828054600181600116156101000203166002900480156107c05780601f10610795576101008083540402835291602001916107c0565b820191906000526020600020905b8154815290600101906020018083116107a357829003601f168201915b505050505090806005018054600181600116156101000203166002900480601f01602080910402602001604051908101604052809291908181526020018280546001816001161561010002031660029004801561085e5780601f106108335761010080835404028352916020019161085e565b820191906000526020600020905b81548152906001019060200180831161084157829003601f168201915b5050505050908060060154908060070154905088565b8015610920576108cd6001600260003373ffffffffffffffffffffffffffffffffffffffff1673ffffffffffffffffffffffffffffffffffffffff1681526020019081526020016000205461116a90919063ffffffff16565b50813373ffffffffffffffffffffffffffffffffffffffff167f5716597d4f7df61dd21a8bbd25901805ca83b1bea21bd39181468740ad32236e6040516109139061194f565b60405180910390a36109c2565b6109736001600360003373ffffffffffffffffffffffffffffffffffffffff1673ffffffffffffffffffffffffffffffffffffffff1681526020019081526020016000205461116a90919063ffffffff16565b50813373ffffffffffffffffffffffffffffffffffffffff167f5716597d4f7df61dd21a8bbd25901805ca83b1bea21bd39181468740ad32236e6040516109b99061196f565b60405180910390a35b3373ffffffffffffffffffffffffffffffffffffffff167fcafc76d4a09c526a91a6cedc8fee40b7bd2d2a30f220ac02c828d7aee65c383a600260003373ffffffffffffffffffffffffffffffffffffffff1673ffffffffffffffffffffffffffffffffffffffff16815260200190815260200160002054600360003373ffffffffffffffffffffffffffffffffffffffff1673ffffffffffffffffffffffffffffffffffffffff16815260200190815260200160002054604051610a889291906119aa565b60405180910390a25050565b6000600160008373ffffffffffffffffffffffffffffffffffffffff1673ffffffffffffffffffffffffffffffffffffffff168152602001908152602001600020549050919050565b6000600360008373ffffffffffffffffffffffffffffffffffffffff1673ffffffffffffffffffffffffffffffffffffffff168152602001908152602001600020549050919050565b610b7860018060003373ffffffffffffffffffffffffffffffffffffffff1673ffffffffffffffffffffffffffffffffffffffff1681526020019081526020016000205461116a90919063ffffffff16565b600160003373ffffffffffffffffffffffffffffffffffffffff1673ffffffffffffffffffffffffffffffffffffffff168152602001908152602001600020819055506000600160003373ffffffffffffffffffffffffffffffffffffffff1673ffffffffffffffffffffffffffffffffffffffff16815260200190815260200160002054905060008090505b600a811015610fb4576000808054809190600101610c239190611188565b905033600082815481101515610c3557fe5b90600052602060002090600b020160000160006101000a81548173ffffffffffffffffffffffffffffffffffffffff021916908373ffffffffffffffffffffffffffffffffffffffff16021790555082600082815481101515610c9457fe5b90600052602060002090600b0201600101819055508782815181101515610cb757fe5b90602001906020020151600082815481101515610cd057fe5b90600052602060002090600b0201600201819055508682815181101515610cf357fe5b90602001906020020151600082815481101515610d0c57fe5b90600052602060002090600b02016004019080519060200190610d309291906111ba565b508582815181101515610d3f57fe5b90602001906020020151600082815481101515610d5857fe5b90600052602060002090600b02016005019080519060200190610d7c9291906111ba565b508482815181101515610d8b57fe5b90602001906020020151600082815481101515610da457fe5b90600052602060002090600b0201600601819055508382815181101515610dc757fe5b90602001906020020151600082815481101515610de057fe5b90600052602060002090600b020160070181905550336004600083815260200190815260200160002060006101000a81548173ffffffffffffffffffffffffffffffffffffffff021916908373ffffffffffffffffffffffffffffffffffffffff160217905550610e9a6001600560003373ffffffffffffffffffffffffffffffffffffffff1673ffffffffffffffffffffffffffffffffffffffff1681526020019081526020016000205461116a90919063ffffffff16565b600560003373ffffffffffffffffffffffffffffffffffffffff1673ffffffffffffffffffffffffffffffffffffffff168152602001908152602001600020819055508782815181101515610eeb57fe5b90602001906020020151833373ffffffffffffffffffffffffffffffffffffffff167f168aca076172edddf6360a2a808a19198e24900e4a3f1c22ad15a2a16512595e8a86815181101515610f3c57fe5b906020019060200201518a87815181101515610f5457fe5b906020019060200201518a88815181101515610f6c57fe5b906020019060200201518a89815181101515610f8457fe5b90602001906020020151604051610f9e94939291906118fc565b60405180910390a4508080600101915050610c05565b50505050505050565b60046020528060005260406000206000915054906101000a900473ffffffffffffffffffffffffffffffffffffffff1681565b6000600260008373ffffffffffffffffffffffffffffffffffffffff1673ffffffffffffffffffffffffffffffffffffffff168152602001908152602001600020549050919050565b606080600560008473ffffffffffffffffffffffffffffffffffffffff1673ffffffffffffffffffffffffffffffffffffffff168152602001908152602001600020546040519080825280602002602001820160405280156110aa5781602001602082028038833980820191505090505b509050600080905060008090505b60008054905081101561115f578473ffffffffffffffffffffffffffffffffffffffff166004600083815260200190815260200160002060009054906101000a900473ffffffffffffffffffffffffffffffffffffffff1673ffffffffffffffffffffffffffffffffffffffff1614156111525780838381518110151561113b57fe5b906020019060200201818152505081806001019250505b80806001019150506110b8565b508192505050919050565b600080828401905083811015151561117e57fe5b8091505092915050565b8154818355818111156111b557600b0281600b0283600052602060002091820191016111b4919061123a565b5b505050565b828054600181600116156101000203166002900490600052602060002090601f016020900481019282601f106111fb57805160ff1916838001178555611229565b82800160010185558215611229579182015b8281111561122857825182559160200191906001019061120d565b5b50905061123691906112f8565b5090565b6112f591905b808211156112f157600080820160006101000a81549073ffffffffffffffffffffffffffffffffffffffff0219169055600182016000905560028201600090556003820160009055600482016000611298919061131d565b6005820160006112a8919061131d565b600682016000905560078201600090556008820160006112c89190611365565b6009820160006112d89190611365565b600a820160006112e89190611365565b50600b01611240565b5090565b90565b61131a91905b808211156113165760008160009055506001016112fe565b5090565b90565b50805460018160011615610100020316600290046000825580601f106113435750611362565b601f01602090049060005260206000209081019061136191906112f8565b5b50565b508054600082559060005260206000209081019061138391906112f8565b50565b60006113928235611b2a565b905092915050565b600082601f83011215156113ad57600080fd5b81356113c06113bb82611a45565b611a18565b9150818183526020840193506020810190508360005b8381101561140657813586016113ec888261151f565b8452602084019350602083019250506001810190506113d6565b5050505092915050565b600082601f830112151561142357600080fd5b600a61143661143182611a6d565b611a18565b9150818385602084028201111561144c57600080fd5b60005b8381101561147c57816114628882611575565b84526020840193506020830192505060018101905061144f565b5050505092915050565b600082601f830112151561149957600080fd5b81356114ac6114a782611a8f565b611a18565b915081818352602084019350602081019050838560208402820111156114d157600080fd5b60005b8381101561150157816114e78882611575565b8452602084019350602083019250506001810190506114d4565b5050505092915050565b60006115178235611b3c565b905092915050565b600082601f830112151561153257600080fd5b813561154561154082611ab7565b611a18565b9150808252602083016020830185838301111561156157600080fd5b61156c838284611b52565b50505092915050565b60006115818235611b48565b905092915050565b60006020828403121561159b57600080fd5b60006115a984828501611386565b91505092915050565b600080600080600060a086880312156115ca57600080fd5b600086013567ffffffffffffffff8111156115e457600080fd5b6115f088828901611486565b955050602086013567ffffffffffffffff81111561160d57600080fd5b6116198882890161139a565b945050604086013567ffffffffffffffff81111561163657600080fd5b6116428882890161139a565b935050606086013567ffffffffffffffff81111561165f57600080fd5b61166b88828901611486565b925050608086013567ffffffffffffffff81111561168857600080fd5b61169488828901611486565b9150509295509295909350565b6000602082840312156116b357600080fd5b60006116c184828501611575565b91505092915050565b600080604083850312156116dd57600080fd5b60006116eb85828601611575565b92505060206116fc8582860161150b565b9150509250929050565b600080600080600080610540878903121561172057600080fd5b600061172e89828a01611575565b965050602061173f89828a01611575565b955050604061175089828a01611410565b94505061018061176289828a01611410565b9350506102c061177489828a01611410565b92505061040061178689828a01611410565b9150509295509295509295565b61179c81611aee565b82525050565b60006117ad82611ae3565b8084526117c1816020860160208601611b61565b6117ca81611b94565b602085010191505092915050565b6000600382527f57696e00000000000000000000000000000000000000000000000000000000006020830152604082019050919050565b6000600482527f4c6f7365000000000000000000000000000000000000000000000000000000006020830152604082019050919050565b61184f81611b20565b82525050565b600060208201905061186a6000830184611793565b92915050565b600061010082019050611886600083018b611793565b611893602083018a611846565b6118a06040830189611846565b6118ad6060830188611846565b81810360808301526118bf81876117a2565b905081810360a08301526118d381866117a2565b90506118e260c0830185611846565b6118ef60e0830184611846565b9998505050505050505050565b6000608082019050818103600083015261191681876117a2565b9050818103602083015261192a81866117a2565b90506119396040830185611846565b6119466060830184611846565b95945050505050565b60006020820190508181036000830152611968816117d8565b9050919050565b600060208201905081810360008301526119888161180f565b9050919050565b60006020820190506119a46000830184611846565b92915050565b60006040820190506119bf6000830185611846565b6119cc6020830184611846565b9392505050565b60006080820190506119e86000830187611846565b6119f56020830186611846565b611a026040830185611846565b611a0f6060830184611846565b95945050505050565b6000604051905081810181811067ffffffffffffffff82111715611a3b57600080fd5b8060405250919050565b600067ffffffffffffffff821115611a5c57600080fd5b602082029050602081019050919050565b600067ffffffffffffffff821115611a8457600080fd5b602082029050919050565b600067ffffffffffffffff821115611aa657600080fd5b602082029050602081019050919050565b600067ffffffffffffffff821115611ace57600080fd5b601f19601f8301169050602081019050919050565b600081519050919050565b6000611af982611b00565b9050919050565b600073ffffffffffffffffffffffffffffffffffffffff82169050919050565b6000819050919050565b6000611b3582611b00565b9050919050565b60008115159050919050565b6000819050919050565b82818337600083830152505050565b60005b83811015611b7f578082015181840152602081019050611b64565b83811115611b8e576000848401525b50505050565b6000601f19601f830116905091905056fea265627a7a72305820b6e3d741baafae7f7c4236c5d758f222dbb3c2b6ba8364576a0321ed57b050636c6578706572696d656e74616cf50037",
  "source": "pragma solidity ^0.5.2;\npragma experimental ABIEncoderV2;\nimport \"./safemath.sol\";\n\ncontract GameController {\n    using SafeMath for uint256;\n\n    event chessInitialize(\n        address indexed playerId,\n        uint256 indexed matchIndex,\n        uint256 indexed chessId,\n        string chessType,\n        string weaponType,\n        uint256 attack,\n        uint256 defense\n    );\n    event chessAction(\n        address indexed playerId,\n        uint256 indexed matchIndex,\n        uint256 indexed roundNum,\n        uint256 chessId,\n        uint256 health,\n        uint256 xCord,\n        uint256 yCord\n    );\n    event announceResult(\n        address indexed playerId,\n        uint256 indexed matchIndex,\n        string result\n    );\n    event gameRecord(\n        address indexed playerId,\n        uint256 winNumber,\n        uint256 loseNumber\n    );\n\n    struct Chess {\n        address owner;\n        uint256 matchIndex;\n        uint256 id;\n        uint256 roundNum;\n        string chessType;\n        string weaponType;\n        uint256 attack;\n        uint256 defense;\n        uint256[] health;\n        uint256[] xCord;\n        uint256[] yCord;\n    }\n\n    Chess[] public chess;\n\n    mapping(address => uint256) playerMatchNumberCount;\n    mapping(address => uint256) playerWinNumberCount;\n    mapping(address => uint256) playerLoseNumberCount;\n    mapping(uint256 => address) public chessToOwner;\n    mapping(address => uint256) ownerChessCount;\n\n    // Update the statistics of chess at the beginning of the match\n    function initializeMatch(\n        uint256[] memory _chessId,\n        string[] memory _chessType,\n        string[] memory _weaponType,\n        uint256[] memory _attack,\n        uint256[] memory _defense\n    ) public {\n        playerMatchNumberCount[msg.sender] = playerMatchNumberCount[msg.sender]\n            .add(1);\n        uint256 _matchIndex = playerMatchNumberCount[msg.sender];\n        for (uint256 i = 0; i < 10; i++) {\n            uint256 _id = chess.length++;\n            chess[_id].owner = msg.sender;\n            chess[_id].matchIndex = _matchIndex;\n            chess[_id].id = _chessId[i];\n            chess[_id].chessType = _chessType[i];\n            chess[_id].weaponType = _weaponType[i];\n            chess[_id].attack = _attack[i];\n            chess[_id].defense = _defense[i];\n            chessToOwner[_id] = msg.sender;\n            ownerChessCount[msg.sender] = ownerChessCount[msg.sender].add(1);\n            emit chessInitialize(\n                msg.sender,\n                _matchIndex,\n                _chessId[i],\n                _chessType[i],\n                _weaponType[i],\n                _attack[i],\n                _defense[i]\n            );\n        }\n    }\n\n    // Update the status of chess per round\n    function updateRoundRecord(\n        uint256 _currentMatch,\n        uint256 _roundNum,\n        uint256[10] memory _chessId,\n        uint256[10] memory _health,\n        uint256[10] memory _xCord,\n        uint256[10] memory _yCord\n    ) public {\n        uint256 _matchIndex = playerMatchNumberCount[msg.sender];\n        /*\n        if (_matchIndex != _currentMatch) {\n            _matchIndex = _currentMatch;\n        }\n        */\n        uint256[] memory chessIDs = getChessId(msg.sender);\n        for (uint256 i = 0; i < chessIDs.length; i++) {\n            for (uint256 j = 0; j < 10; j++) {\n                if (\n                    chess[chessIDs[i]].owner == msg.sender &&\n                    chess[chessIDs[i]].matchIndex == _matchIndex &&\n                    chess[chessIDs[i]].id == _chessId[j]\n                ) {\n                    chess[chessIDs[i]].roundNum = _roundNum;\n                    chess[chessIDs[i]].health.push(_health[j]);\n                    chess[chessIDs[i]].xCord.push(_xCord[j]);\n                    chess[chessIDs[i]].yCord.push(_yCord[j]);\n                    emit chessAction(\n                        msg.sender,\n                        _matchIndex,\n                        _roundNum,\n                        _chessId[j],\n                        _health[j],\n                        _xCord[j],\n                        _yCord[j]\n                    );\n                }\n            }\n        }\n    }\n\n    // Once the winner is determined in front-end, message will be sent and winner info will be published in the blockchain.\n    function resultAnnounce(uint256 _currentMatch, bool _win) public {\n        if (_win) {\n            playerWinNumberCount[msg.sender].add(1);\n            emit announceResult(\n                msg.sender,\n                _currentMatch,\n                \"Win\"\n            ); // After emitting the event, the front-end will go into the result stage.\n        } else {\n            playerLoseNumberCount[msg.sender].add(1);\n            emit announceResult(\n                msg.sender,\n                _currentMatch,\n                \"Lose\"\n            ); // After emitting the event, the front-end will go into the result stage.\n        }\n        emit gameRecord(\n            msg.sender,\n            playerWinNumberCount[msg.sender],\n            playerLoseNumberCount[msg.sender]\n        );\n    }\n\n    function getChessId(address _owner)\n        internal\n        view\n        returns (uint256[] memory)\n    {\n        uint256[] memory result = new uint256[](ownerChessCount[_owner]);\n        uint256 counter = 0;\n        for (uint256 i = 0; i < chess.length; i++) {\n            if (chessToOwner[i] == _owner) {\n                result[counter] = i;\n                counter++;\n            }\n        }\n        return result;\n    }\n\n    function getMatchIndex(address _player) public view returns (uint256) {\n        return playerMatchNumberCount[_player];\n    }\n\n    function getRoundIndex(uint256 _matchIndex) public view returns (uint256) {\n        uint256[] memory result = getChessId(msg.sender);\n        for (uint256 i = 0; i < result.length; i++) {\n            if (chess[result[i]].matchIndex == _matchIndex) {\n                return chess[result[i]].roundNum;\n            }\n        }\n    }\n\n    function getWinIndex(address _player) public view returns (uint256) {\n        return playerWinNumberCount[_player];\n    }\n\n    function getLoseIndex(address _player) public view returns (uint256) {\n        return playerLoseNumberCount[_player];\n    }\n}\n",
  "sourcePath": "C:\\Users\\CHEUNG YAT HO\\Desktop\\LootHunter-dev\\contracts\\GameController.sol",
  "compiler": {
    "name": "solc",
    "version": "0.5.2+commit.1df8f40c.Emscripten.clang"
  },
  "schemaVersion": "3.0.23",
  "updatedAt": "2020-07-21T20:01:08.677Z",
  "networkType": "ethereum",
  "devdoc": {
    "methods": {}
  },
  "userdoc": {
    "methods": {}
  }
}