{
  "contractName": "Learning",
  "abi": [
    {
      "anonymous": false,
      "inputs": [
        {
          "indexed": true,
          "name": "playerId",
          "type": "address"
        },
        {
          "indexed": false,
          "name": "GRULocation",
          "type": "uint8[14]"
        },
        {
          "indexed": false,
          "name": "toDeath",
          "type": "uint8[5]"
        },
        {
          "indexed": false,
          "name": "toKill",
          "type": "uint8[5]"
        }
      ],
      "name": "moveChoice",
      "type": "event"
    },
    {
      "constant": false,
      "inputs": [],
      "name": "saveMove",
      "outputs": [],
      "payable": false,
      "stateMutability": "nonpayable",
      "type": "function"
    }
  ],
  "bytecode": "0x608060405234801561001057600080fd5b506102d2806100206000396000f3fe608060405234801561001057600080fd5b5060043610610048576000357c010000000000000000000000000000000000000000000000000000000090048063546829491461004d575b600080fd5b610055610057565b005b61005f61025f565b6101c060405190810160405280600160ff168152602001600260ff168152602001600360ff168152602001600460ff168152602001600560ff168152602001600660ff168152602001600760ff168152602001600860ff168152602001600960ff168152602001600a60ff168152602001600b60ff168152602001600c60ff168152602001600d60ff168152602001600e60ff168152509050610100610283565b60a060405190810160405280600560ff168152602001600560ff168152602001600560ff168152602001600560ff168152602001600560ff168152509050610146610283565b60a060405190810160405280600460ff168152602001600660ff168152602001600460ff168152602001600660ff168152602001600460ff1681525090503373ffffffffffffffffffffffffffffffffffffffff167f51549efcc71a1a66bac3fffbaa6b0d21be96851da722917908eec3e9772987068484846040518084600e60200280838360005b838110156101ea5780820151818401526020810190506101cf565b5050505090500183600560200280838360005b838110156102185780820151818401526020810190506101fd565b5050505090500182600560200280838360005b8381101561024657808201518184015260208101905061022b565b50505050905001935050505060405180910390a2505050565b6101c060405190810160405280600e90602082028038833980820191505090505090565b60a06040519081016040528060059060208202803883398082019150509050509056fea165627a7a7230582050754301524d019278604caf715036c67264f5ed8fc8bec409be10b4453816320029",
  "source": "pragma solidity ^0.5.2;\r\n\r\ncontract Learning {\r\n    event moveChoice(\r\n        address indexed playerId,\r\n        uint8[14] GRULocation,\r\n        uint8[5] toDeath,\r\n        uint8[5] toKill\r\n    );\r\n\r\n    // event attackChoice(address indexed playerId, bool[5] isTargetAttackable, uint[5] enemyHealthLeft, uint[5] damageToTarget, uint[5] toDeath, uint[5] toKill, uint chosenTarget);\r\n\r\n    function saveMove() public {\r\n        uint8[14] memory GRULocation = [\r\n            1,\r\n            2,\r\n            3,\r\n            4,\r\n            5,\r\n            6,\r\n            7,\r\n            8,\r\n            9,\r\n            10,\r\n            11,\r\n            12,\r\n            13,\r\n            14\r\n        ];\r\n        uint8[5] memory toDeath = [5, 5, 5, 5, 5];\r\n        uint8[5] memory toKill = [4, 6, 4, 6, 4];\r\n        emit moveChoice(msg.sender, GRULocation, toDeath, toKill);\r\n    }\r\n}\r\n",
  "sourcePath": "C:\\Users\\CHEUNG YAT HO\\Desktop\\LootHunter-dev\\contracts\\Learning.sol",
  "compiler": {
    "name": "solc",
    "version": "0.5.2+commit.1df8f40c.Emscripten.clang"
  },
  "schemaVersion": "3.0.23",
  "updatedAt": "2020-07-21T20:01:08.703Z",
  "networkType": "ethereum",
  "devdoc": {
    "methods": {}
  },
  "userdoc": {
    "methods": {}
  }
}