{
  "contractName": "CollectibleOwnership",
  "abi": [
    {
      "constant": false,
      "inputs": [
        {
          "name": "_collectibleId",
          "type": "uint8[]"
        },
        {
          "name": "_specialisationPoint",
          "type": "uint8[]"
        }
      ],
      "name": "specialisationAdd",
      "outputs": [],
      "payable": false,
      "stateMutability": "nonpayable",
      "type": "function"
    },
    {
      "constant": true,
      "inputs": [
        {
          "name": "",
          "type": "uint256"
        }
      ],
      "name": "collectibles",
      "outputs": [
        {
          "name": "itemType",
          "type": "uint256"
        },
        {
          "name": "itemRareness",
          "type": "uint256"
        },
        {
          "name": "itemAttribute",
          "type": "uint256"
        },
        {
          "name": "itemLevel",
          "type": "uint256"
        },
        {
          "name": "specialisationCount",
          "type": "uint256"
        }
      ],
      "payable": false,
      "stateMutability": "view",
      "type": "function"
    },
    {
      "constant": true,
      "inputs": [
        {
          "name": "",
          "type": "uint256"
        }
      ],
      "name": "collectibleToOwner",
      "outputs": [
        {
          "name": "",
          "type": "address"
        }
      ],
      "payable": false,
      "stateMutability": "view",
      "type": "function"
    },
    {
      "constant": false,
      "inputs": [],
      "name": "renounceOwnership",
      "outputs": [],
      "payable": false,
      "stateMutability": "nonpayable",
      "type": "function"
    },
    {
      "constant": true,
      "inputs": [],
      "name": "owner",
      "outputs": [
        {
          "name": "",
          "type": "address"
        }
      ],
      "payable": false,
      "stateMutability": "view",
      "type": "function"
    },
    {
      "constant": true,
      "inputs": [
        {
          "name": "_owner",
          "type": "address"
        }
      ],
      "name": "getCollectiblesId",
      "outputs": [
        {
          "name": "",
          "type": "uint256[]"
        }
      ],
      "payable": false,
      "stateMutability": "view",
      "type": "function"
    },
    {
      "constant": true,
      "inputs": [],
      "name": "isOwner",
      "outputs": [
        {
          "name": "",
          "type": "bool"
        }
      ],
      "payable": false,
      "stateMutability": "view",
      "type": "function"
    },
    {
      "constant": false,
      "inputs": [
        {
          "name": "_numberOfCollectibles",
          "type": "uint256"
        }
      ],
      "name": "obtainCollectible",
      "outputs": [],
      "payable": false,
      "stateMutability": "nonpayable",
      "type": "function"
    },
    {
      "constant": false,
      "inputs": [
        {
          "name": "newOwner",
          "type": "address"
        }
      ],
      "name": "transferOwnership",
      "outputs": [],
      "payable": false,
      "stateMutability": "nonpayable",
      "type": "function"
    },
    {
      "anonymous": false,
      "inputs": [
        {
          "indexed": true,
          "name": "_from",
          "type": "address"
        },
        {
          "indexed": true,
          "name": "_to",
          "type": "address"
        },
        {
          "indexed": true,
          "name": "_tokenId",
          "type": "uint256"
        }
      ],
      "name": "Transfer",
      "type": "event"
    },
    {
      "anonymous": false,
      "inputs": [
        {
          "indexed": true,
          "name": "_owner",
          "type": "address"
        },
        {
          "indexed": true,
          "name": "_approved",
          "type": "address"
        },
        {
          "indexed": true,
          "name": "_tokenId",
          "type": "uint256"
        }
      ],
      "name": "Approval",
      "type": "event"
    },
    {
      "anonymous": false,
      "inputs": [
        {
          "indexed": false,
          "name": "collectibleId",
          "type": "uint256"
        },
        {
          "indexed": false,
          "name": "latestSpecialisation",
          "type": "uint256"
        }
      ],
      "name": "updateSpecialisation",
      "type": "event"
    },
    {
      "anonymous": false,
      "inputs": [
        {
          "indexed": false,
          "name": "collectibleId",
          "type": "uint256"
        },
        {
          "indexed": false,
          "name": "latestLevel",
          "type": "uint256"
        },
        {
          "indexed": false,
          "name": "latestAttribute",
          "type": "uint256"
        }
      ],
      "name": "upgradeWeapon",
      "type": "event"
    },
    {
      "anonymous": false,
      "inputs": [
        {
          "indexed": false,
          "name": "collectibleId",
          "type": "uint256"
        },
        {
          "indexed": false,
          "name": "latestLevel",
          "type": "uint256"
        },
        {
          "indexed": false,
          "name": "latestAttribute",
          "type": "uint256"
        }
      ],
      "name": "upgradeArmor",
      "type": "event"
    },
    {
      "anonymous": false,
      "inputs": [
        {
          "indexed": false,
          "name": "collectibleId",
          "type": "uint256"
        },
        {
          "indexed": false,
          "name": "itemType",
          "type": "uint256"
        }
      ],
      "name": "newCollectible",
      "type": "event"
    },
    {
      "anonymous": false,
      "inputs": [
        {
          "indexed": true,
          "name": "previousOwner",
          "type": "address"
        },
        {
          "indexed": true,
          "name": "newOwner",
          "type": "address"
        }
      ],
      "name": "OwnershipTransferred",
      "type": "event"
    },
    {
      "constant": true,
      "inputs": [
        {
          "name": "_owner",
          "type": "address"
        }
      ],
      "name": "balanceOf",
      "outputs": [
        {
          "name": "",
          "type": "uint256"
        }
      ],
      "payable": false,
      "stateMutability": "view",
      "type": "function"
    },
    {
      "constant": true,
      "inputs": [
        {
          "name": "_tokenId",
          "type": "uint256"
        }
      ],
      "name": "ownerOf",
      "outputs": [
        {
          "name": "",
          "type": "address"
        }
      ],
      "payable": false,
      "stateMutability": "view",
      "type": "function"
    },
    {
      "constant": false,
      "inputs": [
        {
          "name": "_from",
          "type": "address"
        },
        {
          "name": "_to",
          "type": "address"
        },
        {
          "name": "_tokenId",
          "type": "uint256"
        }
      ],
      "name": "transferFrom",
      "outputs": [],
      "payable": true,
      "stateMutability": "payable",
      "type": "function"
    },
    {
      "constant": false,
      "inputs": [
        {
          "name": "_approved",
          "type": "address"
        },
        {
          "name": "_tokenId",
          "type": "uint256"
        }
      ],
      "name": "approve",
      "outputs": [],
      "payable": true,
      "stateMutability": "payable",
      "type": "function"
    }
  ],
  "bytecode": "0x60806040526000600155336000806101000a81548173ffffffffffffffffffffffffffffffffffffffff021916908373ffffffffffffffffffffffffffffffffffffffff1602179055506000809054906101000a900473ffffffffffffffffffffffffffffffffffffffff1673ffffffffffffffffffffffffffffffffffffffff16600073ffffffffffffffffffffffffffffffffffffffff167f8be0079c531659141344cd1fd0a4f28419497f9722a3daafe3b4186f6b6457e060405160405180910390a36117b4806100d46000396000f3fe6080604052600436106100df576000357c01000000000000000000000000000000000000000000000000000000009004806370a082311161009c5780638ee31e0f116100765780638ee31e0f1461052d5780638f32d59b146105d3578063f07c4f1714610602578063f2fde38b1461063d576100df565b806370a082311461045a578063715018a6146104bf5780638da5cb5b146104d6576100df565b8063095ea7b3146100e457806309e853f7146101325780630a09859d1461028b57806323b872dd146102f657806327fbc637146103645780636352211e146103df575b600080fd5b610130600480360360408110156100fa57600080fd5b81019080803573ffffffffffffffffffffffffffffffffffffffff1690602001909291908035906020019092919050505061068e565b005b34801561013e57600080fd5b506102896004803603604081101561015557600080fd5b810190808035906020019064010000000081111561017257600080fd5b82018360208201111561018457600080fd5b803590602001918460208302840111640100000000831117156101a657600080fd5b919080806020026020016040519081016040528093929190818152602001838360200280828437600081840152601f19601f8201169050808301925050505050505091929192908035906020019064010000000081111561020657600080fd5b82018360208201111561021857600080fd5b8035906020019184602083028401116401000000008311171561023a57600080fd5b919080806020026020016040519081016040528093929190818152602001838360200280828437600081840152601f19601f8201169050808301925050505050505091929192905050506107ae565b005b34801561029757600080fd5b506102c4600480360360208110156102ae57600080fd5b81019080803590602001909291905050506109b0565b604051808681526020018581526020018481526020018381526020018281526020019550505050505060405180910390f35b6103626004803603606081101561030c57600080fd5b81019080803573ffffffffffffffffffffffffffffffffffffffff169060200190929190803573ffffffffffffffffffffffffffffffffffffffff169060200190929190803590602001909291905050506109f5565b005b34801561037057600080fd5b5061039d6004803603602081101561038757600080fd5b8101908080359060200190929190505050610adb565b604051808273ffffffffffffffffffffffffffffffffffffffff1673ffffffffffffffffffffffffffffffffffffffff16815260200191505060405180910390f35b3480156103eb57600080fd5b506104186004803603602081101561040257600080fd5b8101908080359060200190929190505050610b0e565b604051808273ffffffffffffffffffffffffffffffffffffffff1673ffffffffffffffffffffffffffffffffffffffff16815260200191505060405180910390f35b34801561046657600080fd5b506104a96004803603602081101561047d57600080fd5b81019080803573ffffffffffffffffffffffffffffffffffffffff169060200190929190505050610b4b565b6040518082815260200191505060405180910390f35b3480156104cb57600080fd5b506104d4610b94565b005b3480156104e257600080fd5b506104eb610c66565b604051808273ffffffffffffffffffffffffffffffffffffffff1673ffffffffffffffffffffffffffffffffffffffff16815260200191505060405180910390f35b34801561053957600080fd5b5061057c6004803603602081101561055057600080fd5b81019080803573ffffffffffffffffffffffffffffffffffffffff169060200190929190505050610c8f565b6040518080602001828103825283818151815260200191508051906020019060200280838360005b838110156105bf5780820151818401526020810190506105a4565b505050509050019250505060405180910390f35b3480156105df57600080fd5b506105e8610dc0565b604051808215151515815260200191505060405180910390f35b34801561060e57600080fd5b5061063b6004803603602081101561062557600080fd5b8101908080359060200190929190505050610e17565b005b34801561064957600080fd5b5061068c6004803603602081101561066057600080fd5b81019080803573ffffffffffffffffffffffffffffffffffffffff169060200190929190505050611050565b005b806003600082815260200190815260200160002060009054906101000a900473ffffffffffffffffffffffffffffffffffffffff1673ffffffffffffffffffffffffffffffffffffffff163373ffffffffffffffffffffffffffffffffffffffff161415156106fc57600080fd5b826005600084815260200190815260200160002060006101000a81548173ffffffffffffffffffffffffffffffffffffffff021916908373ffffffffffffffffffffffffffffffffffffffff160217905550818373ffffffffffffffffffffffffffffffffffffffff163373ffffffffffffffffffffffffffffffffffffffff167f8c5be1e5ebec7d5bd14f71427d1e84f3dd0314c0f7b2291e5b200ac8c7c3b92560405160405180910390a4505050565b60008090505b82518110156109ab5761082482828151811015156107ce57fe5b9060200190602002015160ff16600285848151811015156107eb57fe5b9060200190602002015160ff1681548110151561080457fe5b90600052602060002090600502016004015461106f90919063ffffffff16565b6002848381518110151561083457fe5b9060200190602002015160ff1681548110151561084d57fe5b9060005260206000209060050201600401819055507ff636b4db4e636a6d68eb63d29d11b9a6e52d459758b79083e012728e9a754967838281518110151561089157fe5b90602001906020020151600285848151811015156108ab57fe5b9060200190602002015160ff168154811015156108c457fe5b906000526020600020906005020160040154604051808360ff1681526020018281526020019250505060405180910390a1600280848381518110151561090657fe5b9060200190602002015160ff1681548110151561091f57fe5b906000526020600020906005020160000154101561095f5761095a838281518110151561094857fe5b9060200190602002015160ff1661108d565b61099e565b61099d838281518110151561097057fe5b9060200190602002015160ff16838381518110151561098b57fe5b9060200190602002015160ff16611224565b5b80806001019150506107b4565b505050565b6002818154811015156109bf57fe5b90600052602060002090600502016000915090508060000154908060010154908060020154908060030154908060040154905085565b3373ffffffffffffffffffffffffffffffffffffffff166003600083815260200190815260200160002060009054906101000a900473ffffffffffffffffffffffffffffffffffffffff1673ffffffffffffffffffffffffffffffffffffffff161480610ac057503373ffffffffffffffffffffffffffffffffffffffff166005600083815260200190815260200160002060009054906101000a900473ffffffffffffffffffffffffffffffffffffffff1673ffffffffffffffffffffffffffffffffffffffff16145b1515610acb57600080fd5b610ad6838383611384565b505050565b60036020528060005260406000206000915054906101000a900473ffffffffffffffffffffffffffffffffffffffff1681565b60006003600083815260200190815260200160002060009054906101000a900473ffffffffffffffffffffffffffffffffffffffff169050919050565b6000600460008373ffffffffffffffffffffffffffffffffffffffff1673ffffffffffffffffffffffffffffffffffffffff168152602001908152602001600020549050919050565b610b9c610dc0565b1515610ba757600080fd5b600073ffffffffffffffffffffffffffffffffffffffff166000809054906101000a900473ffffffffffffffffffffffffffffffffffffffff1673ffffffffffffffffffffffffffffffffffffffff167f8be0079c531659141344cd1fd0a4f28419497f9722a3daafe3b4186f6b6457e060405160405180910390a360008060006101000a81548173ffffffffffffffffffffffffffffffffffffffff021916908373ffffffffffffffffffffffffffffffffffffffff160217905550565b60008060009054906101000a900473ffffffffffffffffffffffffffffffffffffffff16905090565b606080600460008473ffffffffffffffffffffffffffffffffffffffff1673ffffffffffffffffffffffffffffffffffffffff16815260200190815260200160002054604051908082528060200260200182016040528015610d005781602001602082028038833980820191505090505b509050600080905060008090505b600280549050811015610db5578473ffffffffffffffffffffffffffffffffffffffff166003600083815260200190815260200160002060009054906101000a900473ffffffffffffffffffffffffffffffffffffffff1673ffffffffffffffffffffffffffffffffffffffff161415610da857808383815181101515610d9157fe5b906020019060200201818152505081806001019250505b8080600101915050610d0e565b508192505050919050565b60008060009054906101000a900473ffffffffffffffffffffffffffffffffffffffff1673ffffffffffffffffffffffffffffffffffffffff163373ffffffffffffffffffffffffffffffffffffffff1614905090565b60008090505b8181101561104c576000610e2f611562565b90506000610e3b611573565b9050600080821415610e505760039050610e85565b6001821415610e625760059050610e84565b6002821415610e745760089050610e83565b6003821415610e8257600a90505b5b5b5b6000600260a06040519081016040528086815260200185815260200184815260200160018152602001600081525090806001815401808255809150509060018203906000526020600020906005020160009091929091909150600082015181600001556020820151816001015560408201518160020155606082015181600301556080820151816004015550509050336003600083815260200190815260200160002060006101000a81548173ffffffffffffffffffffffffffffffffffffffff021916908373ffffffffffffffffffffffffffffffffffffffff160217905550610fb96001600460003373ffffffffffffffffffffffffffffffffffffffff1673ffffffffffffffffffffffffffffffffffffffff1681526020019081526020016000205461106f90919063ffffffff16565b600460003373ffffffffffffffffffffffffffffffffffffffff1673ffffffffffffffffffffffffffffffffffffffff168152602001908152602001600020819055507f61d6fed6f3db1999225d1ee5bc4a82f8ee70a5327822218242310285d524db348185604051808381526020018281526020019250505060405180910390a1505050508080600101915050610e1d565b5050565b611058610dc0565b151561106357600080fd5b61106c816115d3565b50565b600080828401905083811015151561108357fe5b8091505092915050565b8060028181548110151561109d57fe5b906000526020600020906005020160030154600a6002838154811015156110c057fe5b9060005260206000209060050201600401548115156110db57fe5b04101515156110e957600080fd5b61111d60016002848154811015156110fd57fe5b90600052602060002090600502016003015461106f90919063ffffffff16565b60028381548110151561112c57fe5b906000526020600020906005020160030181905550611175600360028481548110151561115557fe5b90600052602060002090600502016002015461106f90919063ffffffff16565b60028381548110151561118457fe5b9060005260206000209060050201600201819055507f68e76339247f110b9031d56bb006c145b21e98e914c87105c2136c2a04f26fc1826002848154811015156111ca57fe5b9060005260206000209060050201600301546002858154811015156111eb57fe5b90600052602060002090600502016002015460405180848152602001838152602001828152602001935050505060405180910390a15050565b80600a811015151561123557600080fd5b604661124160646116cd565b111561137f5761127b600160028581548110151561125b57fe5b90600052602060002090600502016003015461106f90919063ffffffff16565b60028481548110151561128a57fe5b9060005260206000209060050201600301819055506112d360036002858154811015156112b357fe5b90600052602060002090600502016002015461106f90919063ffffffff16565b6002848154811015156112e257fe5b9060005260206000209060050201600201819055507fbe2b5728ba99982c37ad820b8f672a446d9fbc77b631099e89d3f7ab3ad0ea268360028581548110151561132857fe5b90600052602060002090600502016003015460028681548110151561134957fe5b90600052602060002090600502016002015460405180848152602001838152602001828152602001935050505060405180910390a15b505050565b6113d76001600460008573ffffffffffffffffffffffffffffffffffffffff1673ffffffffffffffffffffffffffffffffffffffff1681526020019081526020016000205461106f90919063ffffffff16565b600460008473ffffffffffffffffffffffffffffffffffffffff1673ffffffffffffffffffffffffffffffffffffffff1681526020019081526020016000208190555061146d6001600460008673ffffffffffffffffffffffffffffffffffffffff1673ffffffffffffffffffffffffffffffffffffffff1681526020019081526020016000205461176f90919063ffffffff16565b600460008573ffffffffffffffffffffffffffffffffffffffff1673ffffffffffffffffffffffffffffffffffffffff16815260200190815260200160002081905550816003600083815260200190815260200160002060006101000a81548173ffffffffffffffffffffffffffffffffffffffff021916908373ffffffffffffffffffffffffffffffffffffffff160217905550808273ffffffffffffffffffffffffffffffffffffffff168473ffffffffffffffffffffffffffffffffffffffff167fddf252ad1be2c89b69c2b068fc378daa952ba7f163c4a11628f55a4df523b3ef60405160405180910390a4505050565b600061156e60036116cd565b905090565b60008061158060646116cd565b905060468110156115955760009150506115d0565b605a8110156115a85760019150506115d0565b60608110156115bb5760029150506115d0565b60648110156115ce5760039150506115d0565b505b90565b600073ffffffffffffffffffffffffffffffffffffffff168173ffffffffffffffffffffffffffffffffffffffff161415151561160f57600080fd5b8073ffffffffffffffffffffffffffffffffffffffff166000809054906101000a900473ffffffffffffffffffffffffffffffffffffffff1673ffffffffffffffffffffffffffffffffffffffff167f8be0079c531659141344cd1fd0a4f28419497f9722a3daafe3b4186f6b6457e060405160405180910390a3806000806101000a81548173ffffffffffffffffffffffffffffffffffffffff021916908373ffffffffffffffffffffffffffffffffffffffff16021790555050565b60006116e46001805461106f90919063ffffffff16565b50814233600154604051602001808481526020018373ffffffffffffffffffffffffffffffffffffffff1673ffffffffffffffffffffffffffffffffffffffff166c010000000000000000000000000281526014018281526020019350505050604051602081830303815290604052805190602001206001900481151561176757fe5b069050919050565b600082821115151561177d57fe5b81830390509291505056fea165627a7a723058204cbfc6257db4e060e46d7948ee2ba9f69b5cb90b495346ded90d851345fd11540029",
  "source": "pragma solidity ^0.5.2;\nimport \"./erc721.sol\";\nimport \"./safemath.sol\";\nimport \"./CollectibleUpgrade.sol\";\n\ncontract CollectibleOwnership is CollectibleUpgrade, ERC721 {\n    \n    using SafeMath for uint256;\n    \n    mapping (uint => address) collectibleApprovals;\n    \n    function balanceOf(address _owner) external view returns (uint256) {\n    return ownerCollectibleCount[_owner];\n  }\n\n  function ownerOf(uint256 _tokenId) external view returns (address) {\n    return collectibleToOwner[_tokenId];\n  }\n  \n  function _transfer(address _from, address _to, uint256 _tokenId) private {\n    ownerCollectibleCount[_to] = ownerCollectibleCount[_to].add(1);\n    ownerCollectibleCount[_from] = ownerCollectibleCount[_from].sub(1);\n    collectibleToOwner[_tokenId] = _to;\n    emit Transfer(_from, _to, _tokenId);\n  }\n\n  function transferFrom(address _from, address _to, uint256 _tokenId) external payable {\n    require (collectibleToOwner[_tokenId] == msg.sender || collectibleApprovals[_tokenId] == msg.sender);\n    _transfer(_from, _to, _tokenId);\n  }\n\n  function approve(address _approved, uint256 _tokenId) external payable onlyOwnerOf(_tokenId) {\n    collectibleApprovals[_tokenId] = _approved;\n    emit Approval(msg.sender, _approved, _tokenId);\n  }\n    \n}",
  "sourcePath": "C:\\Users\\CHEUNG YAT HO\\Desktop\\LootHunter-dev\\contracts\\CollectibleOwnership.sol",
  "compiler": {
    "name": "solc",
    "version": "0.5.2+commit.1df8f40c.Emscripten.clang"
  },
  "schemaVersion": "3.0.23",
  "updatedAt": "2020-07-21T20:01:08.668Z",
  "networkType": "ethereum",
  "devdoc": {
    "methods": {
      "isOwner()": {
        "return": "true if `msg.sender` is the owner of the contract."
      },
      "owner()": {
        "return": "the address of the owner."
      },
      "renounceOwnership()": {
        "details": "Allows the current owner to relinquish control of the contract."
      },
      "transferOwnership(address)": {
        "details": "Allows the current owner to transfer control of the contract to a newOwner.",
        "params": {
          "newOwner": "The address to transfer ownership to."
        }
      }
    }
  },
  "userdoc": {
    "methods": {
      "renounceOwnership()": {
        "notice": "Renouncing to ownership will leave the contract without an owner. It will not be possible to call the functions with the `onlyOwner` modifier anymore."
      }
    }
  }
}