{
  "contractName": "GameLearning",
  "abi": [
    {
      "anonymous": false,
      "inputs": [
        {
          "indexed": true,
          "name": "playerId",
          "type": "address"
        },
        {
          "indexed": false,
          "name": "GRULocation",
          "type": "uint8[14]"
        },
        {
          "indexed": false,
          "name": "toDeath",
          "type": "uint8[5]"
        },
        {
          "indexed": false,
          "name": "toKill",
          "type": "uint8[5]"
        }
      ],
      "name": "moveChoice",
      "type": "event"
    },
    {
      "anonymous": false,
      "inputs": [
        {
          "indexed": true,
          "name": "playerId",
          "type": "address"
        },
        {
          "indexed": false,
          "name": "isTargetAttackable",
          "type": "bool[5]"
        },
        {
          "indexed": false,
          "name": "enemyHealthLeft",
          "type": "uint8[5]"
        },
        {
          "indexed": false,
          "name": "damageToTarget",
          "type": "uint8[5]"
        },
        {
          "indexed": false,
          "name": "toDeath",
          "type": "uint8[5]"
        },
        {
          "indexed": false,
          "name": "toKill",
          "type": "uint8[5]"
        },
        {
          "indexed": false,
          "name": "chosenTarget",
          "type": "uint256"
        }
      ],
      "name": "attackChoice",
      "type": "event"
    },
    {
      "constant": false,
      "inputs": [
        {
          "name": "_location",
          "type": "uint8[]"
        },
        {
          "name": "_toDeath",
          "type": "uint8[]"
        },
        {
          "name": "_toKill",
          "type": "uint8[]"
        }
      ],
      "name": "saveMoveData",
      "outputs": [],
      "payable": false,
      "stateMutability": "nonpayable",
      "type": "function"
    },
    {
      "constant": false,
      "inputs": [
        {
          "name": "_attackable",
          "type": "bool[]"
        },
        {
          "name": "_enemyHealthLeft",
          "type": "uint8[]"
        },
        {
          "name": "_damageToTarget",
          "type": "uint8[]"
        },
        {
          "name": "_toDeath",
          "type": "uint8[]"
        },
        {
          "name": "_toKill",
          "type": "uint8[]"
        },
        {
          "name": "_chosen",
          "type": "uint8[]"
        }
      ],
      "name": "saveAttackData",
      "outputs": [],
      "payable": false,
      "stateMutability": "nonpayable",
      "type": "function"
    }
  ],
  "bytecode": "0x608060405234801561001057600080fd5b50610b7a806100206000396000f3fe608060405234801561001057600080fd5b5060043610610053576000357c01000000000000000000000000000000000000000000000000000000009004806335d0643914610058578063a6cab21714610238575b600080fd5b6102366004803603606081101561006e57600080fd5b810190808035906020019064010000000081111561008b57600080fd5b82018360208201111561009d57600080fd5b803590602001918460208302840111640100000000831117156100bf57600080fd5b919080806020026020016040519081016040528093929190818152602001838360200280828437600081840152601f19601f8201169050808301925050505050505091929192908035906020019064010000000081111561011f57600080fd5b82018360208201111561013157600080fd5b8035906020019184602083028401116401000000008311171561015357600080fd5b919080806020026020016040519081016040528093929190818152602001838360200280828437600081840152601f19601f820116905080830192505050505050509192919290803590602001906401000000008111156101b357600080fd5b8201836020820111156101c557600080fd5b803590602001918460208302840111640100000000831117156101e757600080fd5b919080806020026020016040519081016040528093929190818152602001838360200280828437600081840152601f19601f8201169050808301925050505050505091929192905050506105d4565b005b6105d2600480360360c081101561024e57600080fd5b810190808035906020019064010000000081111561026b57600080fd5b82018360208201111561027d57600080fd5b8035906020019184602083028401116401000000008311171561029f57600080fd5b919080806020026020016040519081016040528093929190818152602001838360200280828437600081840152601f19601f820116905080830192505050505050509192919290803590602001906401000000008111156102ff57600080fd5b82018360208201111561031157600080fd5b8035906020019184602083028401116401000000008311171561033357600080fd5b919080806020026020016040519081016040528093929190818152602001838360200280828437600081840152601f19601f8201169050808301925050505050505091929192908035906020019064010000000081111561039357600080fd5b8201836020820111156103a557600080fd5b803590602001918460208302840111640100000000831117156103c757600080fd5b919080806020026020016040519081016040528093929190818152602001838360200280828437600081840152601f19601f8201169050808301925050505050505091929192908035906020019064010000000081111561042757600080fd5b82018360208201111561043957600080fd5b8035906020019184602083028401116401000000008311171561045b57600080fd5b919080806020026020016040519081016040528093929190818152602001838360200280828437600081840152601f19601f820116905080830192505050505050509192919290803590602001906401000000008111156104bb57600080fd5b8201836020820111156104cd57600080fd5b803590602001918460208302840111640100000000831117156104ef57600080fd5b919080806020026020016040519081016040528093929190818152602001838360200280828437600081840152601f19601f8201169050808301925050505050505091929192908035906020019064010000000081111561054f57600080fd5b82018360208201111561056157600080fd5b8035906020019184602083028401116401000000008311171561058357600080fd5b919080806020026020016040519081016040528093929190818152602001838360200280828437600081840152601f19601f8201169050808301925050505050505091929192905050506107f0565b005b6000809050600080905060008090505b600e86518115156105f157fe5b048110156107e857610601610ae4565b60008090505b600e811015610656578781860181518110151561062057fe5b906020019060200201518282600e8110151561063857fe5b602002019060ff16908160ff16815250508080600101915050610607565b5061065f610b08565b610667610b08565b60008090505b60058110156106f5578881870181518110151561068657fe5b90602001906020020151838260058110151561069e57fe5b602002019060ff16908160ff1681525050878187018151811015156106bf57fe5b9060200190602002015182826005811015156106d757fe5b602002019060ff16908160ff1681525050808060010191505061066d565b503373ffffffffffffffffffffffffffffffffffffffff167f51549efcc71a1a66bac3fffbaa6b0d21be96851da722917908eec3e9772987068484846040518084600e60200280838360005b8381101561075c578082015181840152602081019050610741565b5050505090500183600560200280838360005b8381101561078a57808201518184015260208101905061076f565b5050505090500182600560200280838360005b838110156107b857808201518184015260208101905061079d565b50505050905001935050505060405180910390a2600e8601955060058501945050505080806001019150506105e4565b505050505050565b600080905060008090505b8251811015610ada5761080c610b2b565b610814610b08565b61081c610b08565b610824610b08565b61082c610b08565b60008090505b6005811015610963578d81890181518110151561084b57fe5b90602001906020020151868260058110151561086357fe5b6020020190151590811515815250508c81890181518110151561088257fe5b90602001906020020151858260058110151561089a57fe5b602002019060ff16908160ff16815250508b8189018151811015156108bb57fe5b9060200190602002015184826005811015156108d357fe5b602002019060ff16908160ff16815250508a8189018151811015156108f457fe5b90602001906020020151838260058110151561090c57fe5b602002019060ff16908160ff16815250508981890181518110151561092d57fe5b90602001906020020151828260058110151561094557fe5b602002019060ff16908160ff16815250508080600101915050610832565b506000888781518110151561097457fe5b9060200190602002015160ff1690503373ffffffffffffffffffffffffffffffffffffffff167f6e7d4b4d4854b2759e80a61d5a128bc2761b1699bad6baebe010de9178a6a0d98787878787876040518087600560200280838360005b838110156109ec5780820151818401526020810190506109d1565b5050505090500186600560200280838360005b83811015610a1a5780820151818401526020810190506109ff565b5050505090500185600560200280838360005b83811015610a48578082015181840152602081019050610a2d565b5050505090500184600560200280838360005b83811015610a76578082015181840152602081019050610a5b565b5050505090500183600560200280838360005b83811015610aa4578082015181840152602081019050610a89565b50505050905001828152602001965050505050505060405180910390a260058801975050505050505080806001019150506107fb565b5050505050505050565b6101c060405190810160405280600e90602082028038833980820191505090505090565b60a060405190810160405280600590602082028038833980820191505090505090565b60a06040519081016040528060059060208202803883398082019150509050509056fea165627a7a72305820b04dfffb346a55325f55ab528eef882974ae35c28c9f48d7b0412845b3f34d830029",
  "source": "pragma solidity ^0.5.2;\r\n\r\ncontract GameLearning {\r\n    event moveChoice(\r\n        address indexed playerId,\r\n        uint8[14] GRULocation,\r\n        uint8[5] toDeath,\r\n        uint8[5] toKill\r\n    );\r\n    event attackChoice(\r\n        address indexed playerId,\r\n        bool[5] isTargetAttackable,\r\n        uint8[5] enemyHealthLeft,\r\n        uint8[5] damageToTarget,\r\n        uint8[5] toDeath,\r\n        uint8[5] toKill,\r\n        uint256 chosenTarget\r\n    );\r\n\r\n    function saveMoveData(\r\n        uint8[] memory _location,\r\n        uint8[] memory _toDeath,\r\n        uint8[] memory _toKill\r\n    ) public {\r\n        uint256 count1 = 0;\r\n        uint256 count2 = 0;\r\n        for (uint256 i = 0; i < (_location.length / 14); i++) {\r\n            uint8[14] memory locationData;\r\n            for (uint256 j = 0; j < 14; j++) {\r\n                locationData[j] = _location[count1 + j];\r\n            }\r\n            uint8[5] memory deathData;\r\n            uint8[5] memory killData;\r\n            for (uint256 j = 0; j < 5; j++) {\r\n                deathData[j] = _toDeath[count2 + j];\r\n                killData[j] = _toKill[count2 + j];\r\n            }\r\n            emit moveChoice(msg.sender, locationData, deathData, killData);\r\n            count1 += 14;\r\n            count2 += 5;\r\n        }\r\n    }\r\n\r\n    function saveAttackData(\r\n        bool[] memory _attackable,\r\n        uint8[] memory _enemyHealthLeft,\r\n        uint8[] memory _damageToTarget,\r\n        uint8[] memory _toDeath,\r\n        uint8[] memory _toKill,\r\n        uint8[] memory _chosen\r\n    ) public {\r\n        uint256 count = 0;\r\n        for (uint256 i = 0; i < _chosen.length; i++) {\r\n            bool[5] memory attackable;\r\n            uint8[5] memory health;\r\n            uint8[5] memory damage;\r\n            uint8[5] memory deathData;\r\n            uint8[5] memory killData;\r\n            for (uint256 j = 0; j < 5; j++) {\r\n                attackable[j] = _attackable[count + j];\r\n                health[j] = _enemyHealthLeft[count + j];\r\n                damage[j] = _damageToTarget[count + j];\r\n                deathData[j] = _toDeath[count + j];\r\n                killData[j] = _toKill[count + j];\r\n            }\r\n            uint256 chosen = _chosen[i];\r\n            emit attackChoice(\r\n                msg.sender,\r\n                attackable,\r\n                health,\r\n                damage,\r\n                deathData,\r\n                killData,\r\n                chosen\r\n            );\r\n            count += 5;\r\n        }\r\n    }\r\n}\r\n",
  "sourcePath": "C:\\Users\\CHEUNG YAT HO\\Desktop\\LootHunter-dev\\contracts\\GameLearning.sol",
  "compiler": {
    "name": "solc",
    "version": "0.5.2+commit.1df8f40c.Emscripten.clang"
  },
  "schemaVersion": "3.0.23",
  "updatedAt": "2020-07-21T20:01:08.694Z",
  "networkType": "ethereum",
  "devdoc": {
    "methods": {}
  },
  "userdoc": {
    "methods": {}
  }
}